{
  "address": "0xEE2D38B3aC5EB75E4B903BCD7981d13Afd739404",
  "abi": [
    {
      "inputs": [],
      "name": "ZamaProtocolUnsupported",
      "type": "error"
    },
    {
      "inputs": [
        {
          "internalType": "externalEuint32",
          "name": "cipherAssets",
          "type": "bytes32"
        },
        {
          "internalType": "externalEuint32",
          "name": "cipherRiskPref",
          "type": "bytes32"
        },
        {
          "internalType": "externalEuint32",
          "name": "cipherPositionVol",
          "type": "bytes32"
        },
        {
          "internalType": "bytes",
          "name": "inputProof",
          "type": "bytes"
        }
      ],
      "name": "analyze",
      "outputs": [],
      "stateMutability": "nonpayable",
      "type": "function"
    },
    {
      "inputs": [],
      "name": "confidentialProtocolId",
      "outputs": [
        {
          "internalType": "uint256",
          "name": "",
          "type": "uint256"
        }
      ],
      "stateMutability": "view",
      "type": "function"
    },
    {
      "inputs": [],
      "name": "getAll",
      "outputs": [
        {
          "internalType": "euint32",
          "name": "riskScore",
          "type": "bytes32"
        },
        {
          "internalType": "euint8",
          "name": "riskLevel",
          "type": "bytes32"
        },
        {
          "internalType": "euint8",
          "name": "stablePct",
          "type": "bytes32"
        },
        {
          "internalType": "euint8",
          "name": "bluechipPct",
          "type": "bytes32"
        },
        {
          "internalType": "euint8",
          "name": "highRiskPct",
          "type": "bytes32"
        }
      ],
      "stateMutability": "view",
      "type": "function"
    },
    {
      "inputs": [],
      "name": "getRecommendations",
      "outputs": [
        {
          "internalType": "euint8",
          "name": "stable",
          "type": "bytes32"
        },
        {
          "internalType": "euint8",
          "name": "bluechip",
          "type": "bytes32"
        },
        {
          "internalType": "euint8",
          "name": "highRisk",
          "type": "bytes32"
        }
      ],
      "stateMutability": "view",
      "type": "function"
    },
    {
      "inputs": [],
      "name": "getRiskLevel",
      "outputs": [
        {
          "internalType": "euint8",
          "name": "",
          "type": "bytes32"
        }
      ],
      "stateMutability": "view",
      "type": "function"
    },
    {
      "inputs": [],
      "name": "getRiskScore",
      "outputs": [
        {
          "internalType": "euint32",
          "name": "",
          "type": "bytes32"
        }
      ],
      "stateMutability": "view",
      "type": "function"
    }
  ],
  "transactionHash": "0x5f8c68ec8567d239f19622cb68ce2ddc0562007b0c30543fa72be6e0c686b08b",
  "args": [],
  "numDeployments": 2,
  "solcInputHash": "c1104562cc4203b8cbed78a8bf149645",
  "bytecode": "0x6080604052346101255761001161015c565b50466001036100ee5761002261015c565b5061002b610129565b5f81525f60208201525f60408201525b80517f9e7b61f58c47dc699ac88507c4f5bb9f121c03808c5676a8078fe583e464970080546001600160a01b039283166001600160a01b03199182161790915560208301517f9e7b61f58c47dc699ac88507c4f5bb9f121c03808c5676a8078fe583e464970180549184169183169190911790556040928301517f9e7b61f58c47dc699ac88507c4f5bb9f121c03808c5676a8078fe583e464970280549190931691161790555161122090816101d68239f35b4662aa36a70361010557610100610176565b61003b565b46617a690361011657610100610176565b6373cac13b60e01b5f5260045ffd5b5f80fd5b60405190606082016001600160401b0381118382101761014857604052565b634e487b7160e01b5f52604160045260245ffd5b610164610129565b905f82525f60208301525f6040830152565b61017e61015c565b50610187610129565b73f0ffdc93b7e186bc2f8cb3daa75d86d1930a433d81527392c920834ec8941d2c77d188936e1f7a6f49c127602082015273be0e383937d564d7ff0bc3b46c51f0bf8d5c311a60408201529056fe6080806040526004361015610012575f80fd5b5f3560e01c9081632b35f73914610ae95750806353ed514314610a97578063759f78da14610a575780638902a28c146100ad5780638927b0301461008b5763e0b533071461005e575f80fd5b34610087575f36600319011261008757335f525f6020526020600160405f200154604051908152f35b5f80fd5b34610087575f3660031901126100875760206100a5610fbd565b604051908152f35b346100875760803660031901126100875760643567ffffffffffffffff8111610087573660238201121561008757806004013567ffffffffffffffff811161008757602482019160248236920101116100875761014361013b61011c610114368587610b2d565b600435610b73565b9361013361012b368684610b2d565b602435610b73565b933691610b2d565b604435610b73565b918015610a43575b5f5160206111f45f395f51905f5254604051635a53accb60e01b815260048101929092526103e86024830152600160f81b6044830152602090829060649082905f906001600160a01b03165af19081156107d2575f91610a11575b506101b86101b261103a565b83610c9c565b5f5160206111f45f395f51905f5254604051639cd07acb60e01b815260036004820152919291906001600160a01b0316816044815f602094600460248401525af19081156107d2575f916109df575b5080849185156109cf575b156109bd575b60209060646001600160a01b035f5160206111f45f395f51905f525416935f604051958694859363f77f3f1d60e01b8552600485015260248401528160448401525af19081156107d2575f9161098b575b505f5160206111f45f395f51905f5254604051639cd07acb60e01b815260c8600482015291906001600160a01b0316826044815f602094600460248401525af19182156107d2575f92610957575b505f5160206111f45f395f51905f5254604051639cd07acb60e01b815261012c6004820152906001600160a01b0316816044815f602094600460248401525af19081156107d2575f91610925575b505f5160206111f45f395f51905f5254604051639cd07acb60e01b81526101f4600482015292906001600160a01b0316836044815f602094600460248401525af19283156107d2575f936108e7575b509261036d836103889793610382966103739650610d50565b91610d50565b9161037c611089565b90610e63565b92610e63565b5f5160206111f45f395f51905f5254604051639cd07acb60e01b8152600a600482015293906001600160a01b0316846044815f602094600460248401525af19384156107d2575f946108af575b50906103e9846103ef936103f49650610e63565b92610ee8565b610ee8565b5f5160206111f45f395f51905f5254604051639cd07acb60e01b81526103e8600482015291906001600160a01b0316826044815f602094600460248401525af19182156107d2575f9261087b575b505f5160206111f45f395f51905f5254604051639cd07acb60e01b81526107d0600482015292906001600160a01b0316836044815f602094600460248401525af19283156107d2575f93610845575b5061049f6104a69183610c9c565b9282610c9c565b916104da6104d56104c76104b8611089565b6104c061103a565b9087610d50565b6104cf610fec565b84610d50565b610f6d565b926104f56104e66110d8565b6104ee611127565b9083610d50565b916105126105016110d8565b9261050a611127565b61036d6110d8565b5f5160206111f45f395f51905f5254604051639cd07acb60e01b8152604660048201529194906001600160a01b0316826044815f602094600460248401525af180156107d2575f90610811575b61056a925083610d50565b5f5160206111f45f395f51905f5254604051639cd07acb60e01b8152601960048201529193906001600160a01b0316826044815f602094600460248401525af180156107d2575f906107dd575b6105c2925083610d50565b5f5160206111f45f395f51905f5254604051639cd07acb60e01b81526005600482015291949192906001600160a01b0316836044815f602094600460248401525af19283156107d2575f9361079c575b5061062961062f9284610629936106359650610d50565b93610f6d565b91610f6d565b916040519460a086019486861067ffffffffffffffff87111761078857600495604052865260208601908152604086019182526060860192835260808601938452335f525f60205260405f209551865551600186015551600285015551600384015551910155335f525f6020526106b160405f20543090611176565b335f525f6020526106c930600160405f200154611176565b335f525f6020526106e130600260405f200154611176565b335f525f6020526106f930600360405f200154611176565b335f525f60205261071130600460405f200154611176565b335f525f6020526107263360405f2054611176565b335f525f60205261073e33600160405f200154611176565b335f525f60205261075633600260405f200154611176565b335f525f60205261076e33600360405f200154611176565b335f525f60205261078633600460405f200154611176565b005b634e487b7160e01b5f52604160045260245ffd5b92506020833d6020116107ca575b816107b760209383610b0b565b8101031261008757915191610629610612565b3d91506107aa565b6040513d5f823e3d90fd5b506020823d602011610809575b816107f760209383610b0b565b81010312610087576105c291516105b7565b3d91506107ea565b506020823d60201161083d575b8161082b60209383610b0b565b810103126100875761056a915161055f565b3d915061081e565b9092506020813d602011610873575b8161086160209383610b0b565b8101031261008757519161049f610491565b3d9150610854565b9091506020813d6020116108a7575b8161089760209383610b0b565b8101031261008757519082610442565b3d915061088a565b9350906020843d6020116108df575b816108cb60209383610b0b565b8101031261008757925192906103e96103d5565b3d91506108be565b95919250926020863d60201161091d575b8161090560209383610b0b565b8101031261008757945190949290919061036d610354565b3d91506108f8565b90506020813d60201161094f575b8161094060209383610b0b565b81010312610087575187610305565b3d9150610933565b9091506020813d602011610983575b8161097360209383610b0b565b81010312610087575190866102b7565b3d9150610966565b90506020813d6020116109b5575b816109a660209383610b0b565b81010312610087575185610269565b3d9150610999565b5060206109c8610fec565b9050610218565b91506109d9610fec565b91610212565b90506020813d602011610a09575b816109fa60209383610b0b565b81010312610087575185610207565b3d91506109ed565b90506020813d602011610a3b575b81610a2c60209383610b0b565b810103126100875751836101a6565b3d9150610a1f565b505f6020610a4f610fec565b91505061014b565b34610087575f36600319011261008757335f525f602052606060405f20600281015490600460038201549101549060405192835260208301526040820152f35b34610087575f36600319011261008757335f525f60205260a060405f20805490600181015490600281015460046003830154920154926040519485526020850152604084015260608301526080820152f35b34610087575f36600319011261008757602090335f525f825260405f20548152f35b90601f8019910116810190811067ffffffffffffffff82111761078857604052565b92919267ffffffffffffffff82116107885760405191610b57601f8201601f191660200184610b0b565b829481845281830111610087578281602093845f960137010152565b60209182916001600160a01b035f5160206111f45f395f51905f525416905f60a460405180978196829563045fc19560e11b84526004840152336024840152608060448401528051918291826084860152018484015e818101830184905260046064830152601f01601f191681010301925af19081156107d2575f91610c6a575b506001600160a01b037f9e7b61f58c47dc699ac88507c4f5bb9f121c03808c5676a8078fe583e46497005416803b1561008757604051630f8e573b60e21b815260048101839052336024820152905f908290604490829084905af180156107d257610c5d575090565b5f610c6791610b0b565b90565b90506020813d602011610c94575b81610c8560209383610b0b565b8101031261008757515f610bf4565b3d9150610c78565b908115610d40575b8015610d2e575b60209060646001600160a01b035f5160206111f45f395f51905f525416935f6040519586948593631d44e90160e21b8552600485015260248401528160448401525af19081156107d2575f91610cff575090565b90506020813d602011610d26575b81610d1a60209383610b0b565b81010312610087575190565b3d9150610d0d565b506020610d39610fec565b9050610cab565b9050610d4a610fec565b90610ca4565b91908215610dde575b8015610dd0575b8115610dba575b6064602092935f6001600160a01b035f5160206111f45f395f51905f5254166040519687958694637702dcff60e01b86526004860152602485015260448401525af19081156107d2575f91610cff575090565b602091506064610dc8610fec565b925050610d67565b50610dd9610fec565b610d60565b5f5160206111f45f395f51905f5254604051639cd07acb60e01b81525f60048201529193506001600160a01b0316816044815f6020948160248401525af19081156107d2575f91610e31575b5091610d59565b90506020813d602011610e5b575b81610e4c60209383610b0b565b8101031261008757515f610e2a565b3d9150610e3f565b908115610ed8575b8015610ec6575b60209060646001600160a01b035f5160206111f45f395f51905f525416935f6040519586948593630afe14ad60e31b8552600485015260248401528160448401525af19081156107d2575f91610cff575090565b506020610ed1610fec565b9050610e72565b9050610ee2610fec565b90610e6b565b908115610f5d575b8015610f4b575b60209060646001600160a01b035f5160206111f45f395f51905f525416935f604051958694859363022f65e760e31b8552600485015260248401528160448401525af19081156107d2575f91610cff575090565b506020610f56610fec565b9050610ef7565b9050610f67610fec565b90610ef0565b60205f9160446001600160a01b035f5160206111f45f395f51905f5254169160405194859384926307227b9160e21b84526004840152600260248401525af19081156107d2575f91610cff575090565b46600103610fca57600190565b4662aa36a703610fda5761271190565b617a694614610fe7575f90565b5f1990565b5f5160206111f45f395f51905f5254604051639cd07acb60e01b81525f6004820152906001600160a01b0316816044815f602094600460248401525af19081156107d2575f91610cff575090565b5f5160206111f45f395f51905f5254604051639cd07acb60e01b815260026004820152906001600160a01b0316816044815f602094600460248401525af19081156107d2575f91610cff575090565b5f5160206111f45f395f51905f5254604051639cd07acb60e01b815260016004820152906001600160a01b0316816044815f602094600460248401525af19081156107d2575f91610cff575090565b5f5160206111f45f395f51905f5254604051639cd07acb60e01b815260286004820152906001600160a01b0316816044815f602094600460248401525af19081156107d2575f91610cff575090565b5f5160206111f45f395f51905f5254604051639cd07acb60e01b815260146004820152906001600160a01b0316816044815f602094600460248401525af19081156107d2575f91610cff575090565b6001600160a01b037f9e7b61f58c47dc699ac88507c4f5bb9f121c03808c5676a8078fe583e4649700541691823b1561008757604051635ca4b5b160e11b815260048101929092526001600160a01b03166024820152905f908290604490829084905af180156107d2576111e75750565b5f6111f191610b0b565b56fe9e7b61f58c47dc699ac88507c4f5bb9f121c03808c5676a8078fe583e4649701a164736f6c634300081b000a",
  "devdoc": {
    "details": "Mirrors Zama template patterns: uses FHE.fromExternal, FHE.allowThis, FHE.allow and returns ciphertext handles.",
    "kind": "dev",
    "methods": {
      "analyze(bytes32,bytes32,bytes32,bytes)": {
        "params": {
          "cipherAssets": "Encrypted total assets (euint32)",
          "cipherPositionVol": "Encrypted position volatility proxy (0..100) (euint32)",
          "cipherRiskPref": "Encrypted risk preference (1..5) (euint32)",
          "inputProof": "Single proof matching all provided encrypted handles"
        }
      },
      "getRecommendations()": {
        "returns": {
          "bluechip": "Bluechip percentage (euint8)",
          "highRisk": "High risk assets percentage (euint8)",
          "stable": "Stablecoin percentage (euint8)"
        }
      },
      "getRiskLevel()": {
        "details": "0=Low, 1=Medium, 2=High"
      }
    },
    "title": "DeFi Risk Analyzer (FHEVM)",
    "version": 1
  },
  "userdoc": {
    "errors": {
      "ZamaProtocolUnsupported()": [
        {
          "notice": "Returned if the Zama protocol is not supported on the current chain"
        }
      ]
    },
    "kind": "user",
    "methods": {
      "analyze(bytes32,bytes32,bytes32,bytes)": {
        "notice": "Submit encrypted profile and compute encrypted recommendations."
      },
      "getAll()": {
        "notice": "Convenience getter: returns all encrypted outputs for the caller."
      },
      "getRecommendations()": {
        "notice": "Returns the caller's encrypted recommended portfolio split."
      },
      "getRiskLevel()": {
        "notice": "Returns the caller's encrypted risk level handle."
      },
      "getRiskScore()": {
        "notice": "Returns the caller's encrypted risk score handle."
      }
    },
    "notice": "Single-contract encrypted DeFi risk scoring and portfolio recommendation.",
    "version": 1
  },
  "storageLayout": {
    "storage": [
      {
        "astId": 39205,
        "contract": "contracts/DeFiRiskAnalyzer.sol:DeFiRiskAnalyzer",
        "label": "_results",
        "offset": 0,
        "slot": "0",
        "type": "t_mapping(t_address,t_struct(Result)39200_storage)"
      }
    ],
    "types": {
      "t_address": {
        "encoding": "inplace",
        "label": "address",
        "numberOfBytes": "20"
      },
      "t_mapping(t_address,t_struct(Result)39200_storage)": {
        "encoding": "mapping",
        "key": "t_address",
        "label": "mapping(address => struct DeFiRiskAnalyzer.Result)",
        "numberOfBytes": "32",
        "value": "t_struct(Result)39200_storage"
      },
      "t_struct(Result)39200_storage": {
        "encoding": "inplace",
        "label": "struct DeFiRiskAnalyzer.Result",
        "members": [
          {
            "astId": 39187,
            "contract": "contracts/DeFiRiskAnalyzer.sol:DeFiRiskAnalyzer",
            "label": "riskScore",
            "offset": 0,
            "slot": "0",
            "type": "t_userDefinedValueType(euint32)39774"
          },
          {
            "astId": 39190,
            "contract": "contracts/DeFiRiskAnalyzer.sol:DeFiRiskAnalyzer",
            "label": "riskLevel",
            "offset": 0,
            "slot": "1",
            "type": "t_userDefinedValueType(euint8)39768"
          },
          {
            "astId": 39193,
            "contract": "contracts/DeFiRiskAnalyzer.sol:DeFiRiskAnalyzer",
            "label": "stablePct",
            "offset": 0,
            "slot": "2",
            "type": "t_userDefinedValueType(euint8)39768"
          },
          {
            "astId": 39196,
            "contract": "contracts/DeFiRiskAnalyzer.sol:DeFiRiskAnalyzer",
            "label": "bluechipPct",
            "offset": 0,
            "slot": "3",
            "type": "t_userDefinedValueType(euint8)39768"
          },
          {
            "astId": 39199,
            "contract": "contracts/DeFiRiskAnalyzer.sol:DeFiRiskAnalyzer",
            "label": "highRiskPct",
            "offset": 0,
            "slot": "4",
            "type": "t_userDefinedValueType(euint8)39768"
          }
        ],
        "numberOfBytes": "160"
      },
      "t_userDefinedValueType(euint32)39774": {
        "encoding": "inplace",
        "label": "euint32",
        "numberOfBytes": "32"
      },
      "t_userDefinedValueType(euint8)39768": {
        "encoding": "inplace",
        "label": "euint8",
        "numberOfBytes": "32"
      }
    }
  }
}